:020000040800F2
:10000000D004002045010008BB160008A91500080F
:10001000B916000855020008A718000800000000E3
:10002000000000000000000000000000DF160008D3
:100030006502000800000000DD160008E116000857
:100040005F0100085F0100085F0100085F01000810
:100050005F0100085F0100085F0100085F01000800
:100060005F0100085F0100085F01000859020008F5
:100070005F0100085F0100085F0100085F010008E0
:100080005F0100085F0100088D0100085F010008A2
:100090005F0100085F0100085F0100085F010008C0
:1000A0005F0100085F0100085F0100085F010008B0
:1000B0005F0100085F0100085F0100085F010008A0
:1000C0005F0100085F0100085F0100085F01000890
:1000D0005F0100085F0100085F0100085F01000880
:1000E0005F0100085F0100085F0100085F01000870
:1000F0005F0100085F0100085F0100085F01000860
:100100005F0100085F0100085F0100085F0100084F
:100110005F0100085F0100085F0100085F0100083F
:100120005F0100085F0100085F0100085F0100082F
:10013000DFF80CD000F018F800480047C918000894
:10014000D00400200648804706480047FEE7FEE747
:10015000FEE7FEE7FEE7FEE7FEE7FEE7FEE7FEE777
:100160006917000831010008064C074D06E0E068F9
:1001700040F0010394E8070098471034AC42F6D3EE
:10018000FFF7DAFF4419000864190008014800F07D
:1001900020B900001800002070B50446006881688E
:1001A000C943C9071CD1816821F00101816000F0B9
:1001B0005FFD05460FE000BF00F05AFD401B02281E
:1001C00009D9A06A40F01000A062E06A40F0010086
:1001D000E062012070BD20688068C043C007EBD09A
:1001E000002070BDF8B500260446009600688168BE
:1001F000C943C90728D0816841F0010181601348D3
:1002000013490068B0FBF1F000E0401E00900028A8
:10021000FBD100F02DFD054611E000BF00F028FDE8
:10022000401B02280BD9A06A40F01000A062E06ACF
:1002300040F00100E06284F824600120F8BD2068ED
:100240008068C043C007E9D10020F8BD000000204D
:1002500040420F00FEE70000014800F093BA0000A2
:100260008800002070477047F8B50024009490F88B
:1002700024202546012A12D0012280F824204A6831
:100280001F23072A0DD20668776B521E02EB8202EB
:1002900093409F430B6893401F43776319E002200C
:1002A000F8BD06680D2A0AD2376BD21F02EB820214
:1002B00093409F430B6893401F43376309E0F76AFD
:1002C0000D3A02EB820293409F430B6893401F4319
:1002D000F7620A68072306680A2A0AD3F7680A3A07
:1002E00002EB420293409F438B6893401F43F760A9
:1002F00008E0376902EB420293409F438B689340CA
:100300001F4337610A68102A01D0112A20D1124BED
:1003100002689A4217D193681B0219D4936843F478
:10032000000393600968102912D10C490C4A09682E
:10033000B1FBF2F101EB8101490000E0491E00919F
:100340000029FBD104E0816A41F02001816201248F
:1003500080F824502046F8BD002401400000002011
:1003600040420F0070B50646154800F08BF914495D
:1003700030680968884222D1114800F027F840F619
:10038000B831104C104D88420FD9304600F01EF89D
:10039000606001224021284600F064FC2846BDE848
:1003A00070400022022100F05DBC0022402128465E
:1003B00000F058FC024800F0C5F90020606070BDF4
:1003C0001800002004000020001001400068C06CEC
:1003D000704710B5044600684168890626D5016853
:1003E000890723D5A16AC90603D4A16A41F4007123
:1003F000A1628168C1F34241072910D1E16871B956
:10040000416821F020014160A06A20F48070A06260
:10041000A06AC00403D4A06A40F00100A062204694
:10042000FFF7A0FF21686FF01200086020684168A4
:1004300009062ED5016849072BD5A16AC90603D440
:10044000A16A41F40051A1628168C1F30231072918
:1004500009D04168490515D48168C1F34241072993
:1004600010D1E16871B9416821F080014160A06A52
:1004700020F48050A062A06AC00503D4A06A40F0B6
:100480000100A0622046FFF7EEFE21686FF00C002D
:1004900008602068416849060DD50068C0070AD089
:1004A000A06A40F48030A062204600F095F82168F0
:1004B0006FF00100086010BD2DE9F04104004FF01D
:1004C00000057FD0A06A002628B9E66284F824607F
:1004D000204600F083F82046FFF75EFEA16AC906B9
:1004E00000D420B1A06A40F01000A0626AE0A16AC6
:1004F00021F4885141F00201A162334923688B4203
:10050000E16904D1B1F5402F01D14FF40021E76832
:100510004FF4807C41EA470261680A43A168614563
:1005200008D0012906D00021D4F814E0BEF1010F53
:1005300002D00AE06146F7E7C7B1A76A47F0200793
:10054000A762E76A47F00107E7625F6827F4694737
:100550000F435F60236899681C4F394011439960CD
:10056000A16861450BD0012909D00CE0DFF860E0FB
:10057000A7690EEB47370F4347F40061E5E7218A8F
:100580000D05A5F580152168CB6A23F470032B4374
:10059000CB62216889680F4B1940914208D1E6620D
:1005A000A16A21F0020141F00101A162BDE8F081E0
:1005B000A06A20F0020040F01000A062E06A40F063
:1005C0000100E0620120F1E7003C0140FDF7E1FF9E
:1005D00000E0FFFFFE0E1FFF7047000030B505462C
:1005E00000681C4985B0884231D11B48816941F4BB
:1005F000007181618069694600F4007004900120F7
:10060000009003200190154800F034FA154C14486E
:100610008021206000206060C4E90201490021615E
:10062000890061612021C4E90610204600F0CEF95E
:1006300018B175210CA001F037F92C620022114687
:100640001220656200F0A0FB122000F091FB05B0C3
:1006500030BD0000002401400010024000080140AD
:1006600008000240880000202E2E2F5372632F7343
:10067000746D3332663178785F68616C5F6D73706A
:100680002E63000070B5044690F8240001280DD0B8
:10069000012084F824002046FFF7A4FD02004FF05B
:1006A000000005D084F82400104670BD022070BD03
:1006B000A16A40F20123994341F48071A1621F4D68
:1006C00023681F49AB4218D10E6816F4702F14D05E
:1006D000A66A46F48016A6620E68760505D5A66A57
:1006E00026F4005646F48056A662A66AF6040AD599
:1006F000E66A26F00606E66206E0A66A26F480169A
:10070000A6625E68E9E7E06284F824006FF0020008
:10071000186020688368C3F34243072B05D1A842C1
:1007200008D1096811F4702F04D0816841F4801158
:100730008160B9E7816841F4A001F9E70028014030
:100740000424014010B5044690F82400012807D085
:10075000012084F824002046FFF71EFD10B10CE0B4
:10076000022010BD21684A6822F020024A60A16A76
:1007700021F4885141F00101A162002184F8241084
:1007800010BD00002DE9F05FC16B0A6801680B68BD
:10079000046C4FF0040808FA04F8844D844E854F29
:1007A000DFF814C2DFF81492DFF814A2DFF814B2F5
:1007B000DFF814E218EA020F65D05FEA437862D5E9
:1007C0000A68920603D40A6822F004020A60DFF87D
:1007D000F0814FF48062016808F1140813011402DB
:1007E000414524D9A9420DD0B1420FD0B9421AD007
:1007F000614515D0494515D0514501D1120312E08C
:10080000594501D104220EE0714501D140220AE090
:100810006D4D1435A94206D06B4A2832914201D160
:100820001A4600E022466749091F0A6029E0A942EA
:1008300013D0B14215D0B94220D061451BD04945F3
:100840001BD0514502D14FF4800217E0414502D13F
:100850004FF0806212E0594501D104220EE071454B
:1008600001D140220AE0584D1435A94206D0564A1B
:100870002832914201D11A4600E022464B490839FC
:100880004A60C16A71E04FF0020808FA04F818EAF9
:10089000020F70D05FEA83786DD50A68920606D49D
:1008A0000A6822F00A020A60012180F82110DFF8AC
:1008B00010814FF40072016808F11408130114024A
:1008C000414524D9A9420DD0B1420FD0B9421AD026
:1008D000614515D0494515D0514501D1120312E0AB
:1008E000594501D102220EE0714501D120220AE0D2
:1008F000354D1435A94206D0334A2832914201D1F0
:100900001A4600E022462F49091F0A6029E0A94241
:1009100013D0B14215D0B94220D061451BD0494512
:100920001BD0514502D14FF4001217E0414502D1CE
:100930004FF0007212E0594501D102220EE07145DC
:1009400001D120220AE0204D1435A94206D01E4ACA
:100950002832914201D11A4600E022461349083953
:100960004A60002180F82010816A00291CD0BDE86F
:10097000F05F0847FFE70825A540154214D01A0785
:1009800012D50A6822F00E020A6090F84020C36B6C
:10099000012101FA02F25A60816380F821100021DE
:1009A00080F82010016BE0E7BDE8F09F08000240EE
:1009B0001C00024030000240440002405800024047
:1009C0006C000240080402401C04024030B560B1D3
:1009D0001C4A03681421934209D21B4A1A44B2FBF1
:1009E000F1F18900016419490AE0012030BD154A7E
:1009F00052421A44B2FBF1F18900016411490839ED
:100A0000C163022180F821101A6843F6F0718A430D
:100A1000F0E901142143D0E902452C432143046944
:100A20002143446921438469214311431960002112
:100A300041628162C16201634163012242770177B1
:100A4000084630BD08040240F8FFFDBF0000024028
:100A500070B5044600F00CF90546601C02D004484D
:100A60000078044400F004F9401BA042FAD370BDA2
:100A70000C0000202DE9F84FDFF8B8A100220AF1A0
:100A8000040B144601274FF00F090BF1040E00BFB1
:100A90000B6807FA04F52B40AB4274D1DFF898C11C
:100AA0004E68A6EB0C0866452BD00DDC032E34D027
:100AB00005DC36B3012E19D0022E2FD11BE0112EEA
:100AC00016D0122E2AD119E0B8F5881F19D006DCED
:100AD000B8F5803F15D0B8F5801F1FD111E0B8F5EB
:100AE000001F0ED0B8F5041F18D10AE0CA6815E03F
:100AF000CA68121D12E0CA6808320FE0CA680C32D8
:100B00000CE08A682AB1012A4FF0080203D045613F
:100B100004E0042202E0056100E00022FF2B01D87E
:100B2000064601E000F104064FEA840501D9A5F16B
:100B30002005D6F800C009FA05F82CEA080C02FADC
:100B400005F54CEA050CC6F800C04D68ED006AD505
:100B50003A4DAE6946F00106AE61AD6924F0030678
:100B600005F001050095364D06EB050CDCF8085044
:100B7000A6074FEA167809FA08F6B543314EB04297
:100B800002D100261AE04EE02F4EB04201D10126DC
:100B900014E02E4EB04201D102260FE02C4EB0429E
:100BA00001D103260AE02B4EB04201D1042605E014
:100BB000294EB04201D1052600E0062606FA08F6C5
:100BC0002E43CCF808604D68DAF80060ED03554616
:100BD00001D51E4300E09E432E604D68AD0305D550
:100BE000DBF800601E43CBF8006004E0DBF8005047
:100BF0009D43CBF800504D68DEF80060ED0275466D
:100C000001D51E4300E09E432E604D68AD0205D520
:100C1000084D0C352E681E432E6004E0054E0C3640
:100C200035689D433560641C102CFFF431AFBDE87E
:100C3000F88F000000040140000011100010024075
:100C40000000014000080140000C0140001001407C
:100C50000014014000180140001C0140C2684A40D5
:100C6000C26070470AB1016170470904FBE70000E8
:100C700001488068704700000C000020024881682D
:100C800002781144816070470C000020074810B5BD
:100C9000016841F010010160032000F095F8002088
:100CA00000F006F800F024F8002010BD00200240FB
:100CB00070B50D4D04464FF47A712878B1FBF0F011
:100CC0000A490968B1FBF0F000F07BFB48B9102C31
:100CD00007D200222146501E00F056F800206C601A
:100CE00070BD012070BD00000C000020000000203D
:100CF0001D4808B5816941F001018161806900F0FA
:100D000001000090032000F05FF8002211466FF010
:100D10000B0000F039F8002211466FF00A0000F0D5
:100D200033F8002211466FF0090000F02DF8002280
:100D30001146501F00F028F800221146101F00F045
:100D400023F800221146901E00F01EF800221146E2
:100D5000501E00F019F80548416821F0E06141F0AB
:100D60000071416008BD0000001002400000014019
:100D700000F01F02012191404009800000F1E020B5
:100D8000C0F8001170470000F0B40E4B1B680C4611
:100D9000C3F30223C3F10705042D00D90425191D4F
:100DA000072901D2002300E0DB1E012606FA05F127
:100DB000491E214099409E40761E16403143F0BCAA
:100DC00000F07CBC0CED00E0064900F0070208686A
:100DD0004FF6FF03184040EA0220034A1043086020
:100DE000704700000CED00E00000FA052DE9F84323
:100DF00005460078354CC00754D0E0690026C00095
:100E000008D4E06940F08050E061E069012600F01C
:100E1000805000902E480168C90512D401688046B0
:100E200041F480710160FFF723FF074605E000BF32
:100E3000FFF71EFFC01B642823D8D8F80000C005A8
:100E4000F6D5206A10F4407021D0A98801F44071D1
:100E500081421CD0206A1F49012220F440700A60A0
:100E600000220A602062C00711D0FFF701FF074689
:100E700041F2883808E000BFFFF7FAFEC11B414588
:100E800002D90320BDE8F883206A8007F4D5206AE0
:100E9000696820F44070084320621EB1E06920F0C8
:100EA0008050E0612878800705D56068A96820F443
:100EB0004040084360602878C00605D560686969CD
:100EC00020F48000084360600020DBE7001002404F
:100ED00000700040400442422DE9F047DFF83C81B9
:100EE00005460E46D8F8000000F00700B0420CD2CC
:100EF000D8F8001021F007013143C8F80010D8F8E5
:100F0000000000F00700B04263D12878444C80070D
:100F100005D56068A96820F0F00008436060287873
:100F2000C00745D06868012816D02168022816D06D
:100F3000890700294DDA616821F0030101436160EE
:100F4000FFF796FE6968074641F2883001290FD005
:100F50000229814619D027E021688903E9E7890140
:100F6000E7E700BFFFF784FEC11B494501D918E040
:100F700081466068C0F381000128F3D118E000BF0A
:100F8000FFF776FEC11B49450BD86068C0F38100AE
:100F90000228F5D10CE000BFFFF76AFEC11B4945EE
:100FA00002D90320BDE8F087606810F00C0FF3D180
:100FB000D8F80010404601F00701B1420BD9016892
:100FC00021F0070131430160006800F00700B042E2
:100FD00001D00120E6E72878400705D56068E96878
:100FE00020F4E060084360602878000706D5606858
:100FF000296920F4605040EAC100606000F01CF8EC
:101000006168084AC1F30311515CC8400649086091
:101010000020FFF74DFE0020C4E700000020024042
:101020000010024034190008000000200148006848
:10103000704700000000002012A185B00FC98DE8A4
:101040000F0014A0144A006804905168134801F07E
:101050000C03042B10D0082B0ED1C1F38343C9031A
:101060001DF803000AD5516804AAC1F34041515C40
:101070000A4A5043B0FBF1F005B0704708494843B5
:10108000FAE7000002030405060708090A0B0C0D25
:101090000E0F1010010200000010024000127A0032
:1010A00000093D002DE9F84F04460078B94DC0070E
:1010B00048D06868C0F38100012807D06868C0F391
:1010C0008100022809D16868C00306D5286880031A
:1010D00038D5606800286FD034E06068B0F5803F94
:1010E0000BD010B1B0F5A02F11D0286820F48030BB
:1010F0002860286820F4802002E0286840F48030CE
:101100002860606888B1FFF7B3FD064609E02868EB
:1011100040F480202860F0E7FFF7AAFD801B6428D8
:1011200075D828688003F7D50CE0FFF7A1FD0646C7
:1011300005E000BFFFF79CFD801B6428F0D82868FD
:101140008003F7D42078944E80074FF001094FF0C8
:1011500000083BD5686810F00C0F07D06868C0F332
:101160008100022809D16868C00306D42868800776
:1011700014D5206901281FD110E02069B0B1C6F84C
:101180000090FFF775FD074605E000BFFFF770FD13
:10119000C01B0228C4D828688007F7D52868616971
:1011A00020F0F80040EAC10028600FE0C6F8008097
:1011B000FFF75EFD074606E0E9E000BFFFF758FDD8
:1011C000C01B022823D828688007F7D4207800079E
:1011D0002CD57248A169D9B1C0F80090FFF748FD3D
:1011E000074604E0FFF744FDC01B02280FD8686AD9
:1011F0008007F7D56A484FF4FA510068B0FBF1F068
:10120000009000BF0098411E0091FAD20EE080E0ED
:10121000C0F80080FFF72CFD074604E0FFF728FD2B
:10122000C01B022875D8686A8007F7D42078400769
:1012300060D5E8690027C00008D4E86940F0805014
:10124000E861E869012700F0805000905548016886
:10125000C90513D40168834641F480710160FFF72A
:1012600007FD824606E000BFFFF702FDA0EB0A0083
:1012700064284ED8DBF80000C005F5D5E0680128E9
:101280000AD008B1052813D0286A20F0010028628E
:10129000286A20F0040002E0286A40F00100286279
:1012A000E06841F2883B98B1FFF7E2FC82460BE030
:1012B000286A40F004002862EEE700BFFFF7D8FC80
:1012C000A0EB0A0159455AD8286A8007F6D50CE0E8
:1012D000FFF7CEFC824605E0FFF7CAFCA0EB0A014F
:1012E00059454CD8286A8007F6D41FB1E86920F028
:1012F0008050E861E06988B36968C1F3810102291F
:1013000045D00228C6F8608004D0FFF7B1FC04463F
:1013100038E034E0FFF7ACFC074604E0FFF7A8FC38
:10132000C01B02282BD828688001F7D4206AB0F5AA
:10133000803F05D16868A16820F4003008436860E8
:10134000D4E908010843696821F47411084368600E
:10135000C6F86090FFF78CFC044606E015E000BF7D
:10136000FFF786FC001B022809D828688001F7D502
:101370000BE000BFFFF77CFC001B022802D9032012
:10138000BDE8F88F28688001F4D40020F8E7012038
:10139000F6E7000000100240000042428004424292
:1013A00000000020007000404FF0E0210428086990
:1013B00003D020F004000861704740F00400FAE711
:1013C000704710B5401EB0F1807F01D3012010BDE1
:1013D0004FF0E02460610F21601700F06FF90020EA
:1013E000A06107202061002010BD10B5FFF7E8FFC5
:1013F00010BD30B590F83C20012A20D0012280F8A1
:101400003C20022380F83D3003685C6824F07004BF
:101410005C6003685C680D682C435C6003689C68D2
:1014200024F080049C6003689C6849680C439C60BD
:1014300080F83D20002180F83C10084630BD022095
:1014400030BD10B5040003D094F83D0010B107E0A2
:10145000012010BD002084F83C00204600F00CF86C
:10146000022084F83D00211D206800F0A1F9012030
:1014700084F83D00002010BD08B50068B0F1804F31
:1014800008D10548C16941F00101C161C06900F09E
:101490000100009008BD000000100240022180F809
:1014A0003D1001680A6842F001020A60012180F8DB
:1014B0003D100020704770B5044690F83C000128AC
:1014C00017D0012584F83C50022084F83D002068A4
:1014D000826822F0770222F47F42826008685028F6
:1014E00037D00DDC202859D005DC88B3102841D135
:1014F00051E0022070BD302853D040283AD13FE05F
:1015000060282ED070280BD0B0F5805F03D0B0F5E6
:10151000005F2FD110E02068816821F0070115E0FD
:10152000CB68D1E90121206800F088F9216888683A
:1015300040F0770088601DE0CB68D1E90121206888
:1015400000F07CF92068816841F48041816011E0FD
:101550001EE0CA684968206800F082F950212068BE
:1015600006E0CA684968206800F08BF960212068AD
:1015700000F06EF984F83D50002084F83C0070BD06
:10158000CA684968206800F06BF940212068EFE7DD
:1015900000212068ECE710212068E9E7202120687D
:1015A000E6E730212068E3E7FEE700003EB50F489C
:1015B0000D49002401600125C0E90245446105612F
:1015C0004FF460214460C161FEF776FF00B1FEE791
:1015D000CDE90045694605480294FEF745FE00281E
:1015E00000D0FEE73EBD00000024014018000020AE
:1015F0001A4810B5816986B041F020018161816986
:1016000001F020010491816941F01001816181693B
:1016100001F010010491816941F004018161806948
:101620000F4C00F0040004900022C2212046FFF776
:1016300019FBC2200090012001900320039069460D
:101640002046FFF717FA0021A015CDE9000102910D
:1016500069462046FFF70EFA06B010BD00100240A2
:101660000010014010B5134886B04FF08041016072
:1016700047210024C0E901144FF6FE71C0E90314AC
:101680008461FFF7DEFE00B1FEE74FF4805000906A
:1016900069460848FFF70FFF00B1FEE7049404A96C
:1016A00004480594FFF7A5FE002800D0FEE706B029
:1016B00010BD000048000020FEE770470907090E32
:1016C000002806DA00F00F0000F1E02080F8141D79
:1016D000704700F1E02080F80014704770477047B1
:1016E00010B5FFF7CBFABDE81040FFF77EBE30B56E
:1016F00095B001210804CDE90010002502950224CF
:101700000491CDE907404FF4E01009906846FFF7D7
:10171000C9FC00B1FEE70AA90F2081E831004FF4AF
:101720008060CDE90D0502210AA8FFF7D5FB00B1C5
:10173000FEE74FF4004011900F940FA8FFF756FBFF
:1017400000B1FEE7FFF772FC4FF47A71B0FBF1F0E5
:10175000FFF737FE0420FFF727FE00221146501E38
:10176000FFF712FB15B030BD0D48016841F00101D3
:10177000016041680B4A1140416001680A4A11400A
:101780000160016821F480210160416821F4FE01BB
:1017900041604FF41F0181600449C0030860704735
:1017A000001002400000FFF8FFFFF6FE08ED00E029
:1017B000F0B502681C4B1D4D1D4E1E4F1E4C4FF0C8
:1017C000804C984209D0A04207D0604505D0A8427D
:1017D00003D0B04201D0B84204D122F0700E4A6862
:1017E00042EA0E02984209D0A04207D0604505D0D7
:1017F000A84203D0B04201D0B84203D122F44075D0
:10180000CA682A4322F080054A692A4302608A682E
:10181000C2620A688262984201D0A04201D109697D
:10182000016301214161F0BD002C01400004004032
:1018300000080040000C00400034014010B58468EE
:1018400042EA032224F47F440A432243826010BD0B
:10185000826822F070020A4342F0070181607047FB
:1018600010B5036A046A24F001040462846924F058
:10187000F00444EA021423F00A020A43846102627B
:1018800010BD10B5036A23F0100303628369046A74
:1018900023F4704343EA023224F0A00343EA011127
:1018A0008261016210BDFEE7FEE702E008C8121F78
:1018B00008C1002AFAD170477047002001E001C139
:1018C000121F002AFBD1704708B5FFF7DFF9FFF7B9
:1018D0000EFFFFF78DFE1448416941F0010141619F
:1018E0004069002200F00100009011460B20FFF734
:1018F0004BFA0B20FFF73CFAFFF758FEFFF7B2FE5A
:101900000A48FFF7CBFD0A4C02212046FFF7A6F953
:101910006420FFF79DF840212046FFF79FF96E20D5
:10192000FFF796F8F0E700000010024048000020A2
:10193000001001400000000000000000010203044C
:1019400006070809641900080000002018000000BC
:10195000AA1800087C19000818000020B80400002C
:10196000BA18000800A24A040000000000000000AD
:0C1970000100000010000000000000005A
:0400000508000131BD
:00000001FF
