:020000040800F2
:10000000E006002045010008DF2A0008C724000898
:10001000DD2A000845040008433200080000000003
:10002000000000000000000000000000C32B0008DA
:100030007F04000800000000C12B0008C52B000849
:100040005F0100085F0100085F0100085F01000810
:100050005F0100085F0100085F0100085F01000800
:100060005F010008810400088704000849040008B3
:100070005F0100085F0100085F0100085F010008E0
:100080005F0100085F0100085F0100085F010008D0
:100090005F0100085F0100085F0100088D0400088F
:1000A0005F0100085F0100085F0100085F010008B0
:1000B0005F0100085F0100085F0100085F010008A0
:1000C0005F0100085F0100085F0100085F01000890
:1000D0005F0100085F0100085F0100085F01000880
:1000E0005F0100085F0100085F0100085F01000870
:1000F0005F0100085F0100085F01000809030008B4
:100100005F0100085F0100085F0100085F0100084F
:10011000292F00085F0100085F0100085F01000847
:100120005F0100085F0100085F0100085F0100082F
:10013000DFF80CD000F074F80048004701350008E3
:10014000E00600200648804706480047FEE7FEE735
:10015000FEE7FEE7FEE7FEE7FEE7FEE7FEE7FEE777
:100160004D2C00083101000870B5064603F080F8F8
:10017000046805460A220021304600F018F82C6079
:1001800070BD30B50B46014600202022012409E055
:1001900021FA02F59D4205D303FA02F5491B04FA40
:1001A00002F52844151EA2F10102F1DC30BD2DE953
:1001B000F04791460F4680460446002614F8015B3E
:1001C0002DB100F03FF80068405DC007F6D12B2D3F
:1001D00002D02D2D18D0641E4A463946204600F024
:1001E00035F827B13968A14201D1C7F800807105FF
:1001F0004FF002040BD54042002803DD03F038F82D
:100200000460A007BDE8F08746F48066E4E70028B4
:10021000F8DA03F02DF804606FF00040F2E7000018
:10022000064C074D06E0E06840F0010394E8070043
:1002300098471034AC42F6D3FFF77EFFFC3B000832
:100240001C3C000800487047F83B00082DE9F05FAF
:1002500082460078002715468B460AF10104B9460C
:10026000302801D09DB113E014F8010B0127782844
:1002700003D0582801D045B10AE00DB1102D07D1A7
:100280000027102514F8010B02E0082500E00A25DC
:100290000026B0460EE005FB080005FB06F101272D
:1002A00001EB10461FFA80F8B6F5803F00D3B9463F
:1002B00014F8010B294600F018F80028EBDABBF11E
:1002C000000F05D00FB1641E00E05446CBF800408B
:1002D000B9F1000F06D002F0CBFF02210160C81E69
:1002E000BDE8F09F48EA0640FAE73A2800D23038E5
:1002F00020F02002412A01D3A2F13700884201D325
:100300004FF0FF3070470000014800F06EB9000068
:100310006C00002070B5044600688168C943C907B5
:100320001CD1816821F00101816000F0EFFF0546DA
:100330000FE000BF00F0EAFF401B022809D9A06AC5
:1003400040F01000A062E06A40F00100E06201208D
:1003500070BD20688068C043C007EBD0002070BD2E
:1003600010B50146406A826A12F0500F05D0006A4B
:10037000026BBDE8104008461047816A41F40071E5
:10038000816201688968C1F3424107290CD1C168C3
:1003900051B9816A21F480718162816AC90403D4F0
:1003A000816A41F00101816200F000F910BD10B5D1
:1003B000406A816A41F040018162C16A41F00401F2
:1003C000C16200F00EF910BD10B5406A00F008F9E6
:1003D00010BD0000F8B5002604460096006881684C
:1003E000C943C90728D0816841F0010181601348E1
:1003F00013490068B0FBF1F000E0401E00900028B7
:10040000FBD100F083FF054611E000BF00F07EFF46
:10041000401B02280BD9A06A40F01000A062E06ADD
:1004200040F00100E06284F824600120F8BD2068FB
:100430008068C043C007E9D10020F8BD000000205B
:1004400040420F00FEE70000014800F027BC00001A
:100450009C02002030B590F840500124AC40C56BA0
:100460006C60046863604368102B036803D0996074
:100470000068C26030BD9A600068C16030BD7047DE
:10048000082000F039BE102000F036BE10B5202044
:1004900000F032FE402000F02FFE802000F02CFE05
:1004A000BDE810404FF4807000F026BE7047000099
:1004B000F8B50024009490F824202546012A12D093
:1004C000012280F824204A681F23072A0DD20668DB
:1004D000776B521E02EB820293409F430B6893405E
:1004E0001F43776319E00220F8BD06680D2A0AD27F
:1004F000376BD21F02EB820293409F430B689340FD
:100500001F43376309E0F76A0D3A02EB820293401A
:100510009F430B6893401F43F7620A6807230668EE
:100520000A2A0AD3F7680A3A02EB420293409F4331
:100530008B6893401F43F76008E0376902EB420283
:1005400093409F438B6893401F4337610A68102A8A
:1005500001D0112A20D1124B02689A4217D1936818
:100560001B0219D4936843F40003936009681029AF
:1005700012D10C490C4A0968B1FBF2F101EB81017F
:10058000490000E0491E00910029FBD104E0816A86
:1005900041F020018162012480F824502046F8BDFA
:1005A000002401400000002040420F0010B50A491D
:1005B0000068096888420AD1074800F013F8074923
:1005C000C861C869B0F57A7F01D800200870BDE81D
:1005D0001040014800F006BA6C0000201000002016
:1005E000704770470068C06C704710B504460068DB
:1005F0004168890626D50168890723D5A16AC906FD
:1006000003D4A16A41F40071A1628168C1F342413F
:10061000072910D1E16871B9416821F020014160DA
:10062000A06A20F48070A062A06AC00403D4A06A0B
:1006300040F00100A0622046FFF7B8FF21686FF08C
:10064000120008602068416809062ED50168490734
:100650002BD5A16AC90603D4A16A41F40051A16255
:100660008168C1F30231072909D04168490515D4D1
:100670008168C1F34241072910D1E16871B941682D
:1006800021F080014160A06A20F48050A062A06A3D
:10069000C00503D4A06A40F00100A0622046FFF725
:1006A00005FF21686FF00C0008602068416849066A
:1006B0000DD50068C0070AD0A06A40F48030A0625F
:1006C000204600F095F821686FF00100086010BD29
:1006D0002DE9F04104004FF000057FD0A06A00260C
:1006E00028B9E66284F82460204600F083F82046AA
:1006F000FFF710FEA16AC90600D420B1A06A40F03D
:100700001000A0626AE0A16A21F4885141F0020160
:10071000A162334923688B42E16904D1B1F5402FCE
:1007200001D14FF40021E7684FF4807C41EA470291
:1007300061680A43A168614508D0012906D00021FB
:10074000D4F814E0BEF1010F02D00AE06146F7E7E9
:10075000C7B1A76A47F02007A762E76A47F0010719
:10076000E7625F6827F469470F435F602368996811
:100770001C4F394011439960A16861450BD0012994
:1007800009D00CE0DFF860E0A7690EEB47370F43B4
:1007900047F40061E5E7218A0D05A5F5801521687C
:1007A000CB6A23F470032B43CB62216889680F4B1B
:1007B0001940914208D1E662A16A21F0020141F09C
:1007C0000101A162BDE8F081A06A20F0020040F0C2
:1007D0001000A062E06A40F00100E0620120F1E751
:1007E000003C0140FDF7E1FF00E0FFFFFE0E1FFFB0
:1007F0007047000070B505460068284A2849032460
:10080000012686B090422FD1886940F4007088613B
:100810008869694600F400700490FF20CDE9000467
:10082000204800F075FCCDE9006469461E4800F0E0
:100830006FFC1F4C1D488021206000206060C4E9CF
:10084000020149002161890061612021C4E906108B
:10085000204600F047FB18B1822116A002F0F2FCFE
:100860002C62656206B070BD194A9042FAD188695F
:1008700040F4004088618869CDE9006400F40040DC
:1008800004906946134800F043FC002203212F2006
:1008900000F026FF2F2000F017FFE3E700240140BF
:1008A0000010024000080140000C01400800024016
:1008B0009C0200202E2E2F5372632F73746D3332DF
:1008C000663178785F68616C5F6D73702E630000CD
:1008D000003C0140001001402DE9F04789460446E4
:1008E0003B4900683B4F0E1D9046884201D0B842FC
:1008F00007D1306810F4702F03D001252846BDE8D9
:10090000F08794F8240001280CD0012084F82400FA
:100910002046FFF75FFD05004FF0000004D084F88B
:100920002400EBE70220EAE7A16A40F60162914366
:1009300041F48071A1622168B94218D1326812F481
:10094000702F14D0A16A41F48011A1623168490569
:1009500005D5A16A21F4005141F48051A162A16A38
:10096000C9040AD5E16A21F00601E16206E0A26A43
:1009700022F48012A2624968E9E7E06284F8240068
:10098000216A15488862216A1448C862216A14489D
:10099000086321686FF0020008602068816841F4F4
:1009A00080718160216843464A464C31206A00F0DC
:1009B000DBFA20688168C1F342410729816803D0CE
:1009C00041F48011816099E741F4A001FAE7000049
:1009D000002401400028014061030008C903000809
:1009E000AF03000870B5044690F8240001280DD02C
:1009F000012084F824002046FFF7ECFC02004FF0B1
:100A0000000005D084F82400104670BD022070BD9F
:100A1000A16A40F60163994341F48071A162224DBD
:100A200023682249AB4218D10E6816F4702F14D0F7
:100A3000A66A46F48016A6620E68760505D5A66AF3
:100A400026F4005646F48056A662A66AF6040AD535
:100A5000E66A26F00606E66206E0A66A26F4801636
:100A6000A6625E68E9E7E06284F824006FF00200A5
:100A700018602068436843F020034360206883685F
:100A8000C3F34243072B05D1A84208D1096811F4EA
:100A9000702F04D0816841F480118160B4E78168CF
:100AA00041F4A001F9E700000028014004240140BE
:100AB00010B5044690F82400012807D0012084F8DE
:100AC00024002046FFF726FC10B10EE0022010BDE6
:100AD0002068816821F480718160206A00F02DF81F
:100AE000A16A30B141F04001A162002184F82410D4
:100AF00010BD21F4885141F00101F5E710B504461D
:100B000090F82400012807D0012084F82400204612
:100B1000FFF700FC10B10CE0022010BD21684A680C
:100B200022F020024A60A16A21F4885141F00101BB
:100B3000A162002184F8241010BD01680A6822F027
:100B40000E020A6001680A6822F001020A6090F849
:100B50004020C36B012101FA02F25A6080F8211093
:100B6000002180F820100846704700002DE9F05F52
:100B700090F821100024022903D00421816301246C
:100B800085E001680A6822F00E020A6001680A68BE
:100B900022F001020A603F4E3E4FB215DFF8F4C06A
:100BA000DFF8F090DFF8ECA0DFF8E8B0DFF8E4E081
:100BB0000168783F13011502ACF1640CA9F15009EA
:100BC000AAF13C0AABF1280BAEF1140E4FF48018D9
:100BD000B14227D9B9420ED0614512D049451DD046
:100BE000514518D0594518D0714501D1424615E0FC
:100BF000294EB14201D1012210E0274E1436B142F4
:100C000001D110220AE0244E2836B14206D0224AF1
:100C10003C32914201D11A4600E02A461E49091F82
:100C20000A602BE0B94213D0614517D0494522D064
:100C300051451DD059451DD0714501D142461AE09C
:100C4000B14202D14FF0807215E0134EB14201D192
:100C5000012210E0104E1436B14201D110220AE0F8
:100C60000D4E2836B14206D00B4A3C32914201D19A
:100C70001A4600E02A46074980394A60012180F877
:100C80002110002180F82010416B01B188472046D7
:100C9000BDE8F09F80000240080402402DE9F05FAB
:100CA000C16B0A6801680B68046C4FF0040808FA0D
:100CB00004F8844D844E854FDFF814C2DFF8149297
:100CC000DFF814A2DFF814B2DFF814E218EA020F1A
:100CD00065D05FEA437862D50A68920603D40A6851
:100CE00022F004020A60DFF8F0814FF480620168AC
:100CF00008F1140813011402414524D9A9420DD06A
:100D0000B1420FD0B9421AD0614515D0494515D02E
:100D1000514501D1120312E0594501D104220EE0E0
:100D2000714501D140220AE06D4D1435A94206D02B
:100D30006B4A2832914201D11A4600E022466749A7
:100D4000091F0A6029E0A94213D0B14215D0B94267
:100D500020D061451BD049451BD0514502D14FF4ED
:100D6000800217E0414502D14FF0806212E0594500
:100D700001D104220EE0714501D140220AE0584D14
:100D80001435A94206D0564A2832914201D11A465A
:100D900000E022464B4908394A60C16A71E04FF0D1
:100DA000020808FA04F818EA020F70D05FEA8378A4
:100DB0006DD50A68920606D40A6822F00A020A6013
:100DC000012180F82110DFF810814FF400720168D2
:100DD00008F1140813011402414524D9A9420DD089
:100DE000B1420FD0B9421AD0614515D0494515D04E
:100DF000514501D1120312E0594501D102220EE002
:100E0000714501D120220AE0354D1435A94206D0A2
:100E1000334A2832914201D11A4600E022462F4936
:100E2000091F0A6029E0A94213D0B14215D0B94286
:100E300020D061451BD049451BD0514502D14FF40C
:100E4000001217E0414502D14FF0007212E05945FF
:100E500001D102220EE0714501D120220AE0204D8D
:100E60001435A94206D01E4A2832914201D11A46B1
:100E700000E02246134908394A60002180F820101A
:100E8000816A00291CD0BDE8F05F0847FFE708250C
:100E9000A540154214D01A0712D50A6822F00E0296
:100EA0000A6090F84020C36B012101FA02F25A60F7
:100EB000816380F82110002180F82010016BE0E7A9
:100EC000BDE8F09F080002401C00024030000240D4
:100ED00044000240580002406C00024008040240F6
:100EE0001C04024030B560B11C4A036814219342CF
:100EF00009D21B4A1A44B2FBF1F189000164194975
:100F00000AE0012030BD154A52421A44B2FBF1F109
:100F10008900016411490839C163022180F8211058
:100F20001A6843F6F0718A43F0E901142143D0E9CD
:100F300002452C43214304692143446921438469C8
:100F4000214311431960002141628162C162016342
:100F50004163012242770177084630BD0804024010
:100F6000F8FFFDBF0000024070B5044690F8200075
:100F7000002501280CD0012084F8200094F821607D
:100F80000020012E06D084F820000225284670BDDE
:100F9000022070BD022684F82160A06320680668E4
:100FA00026F0010606602046FFF754FAE06A0028A2
:100FB0002068016802D041F00E0106E021F0040132
:100FC00001602068016841F00A0101602068016841
:100FD00041F001010160D9E770B5044600F096F9CF
:100FE0000546601C02D004480078044400F08EF9E5
:100FF000401BA042FAD370BD0400002070B5044627
:101000002C4801F08DF82C4D202C15D0082C34D014
:10101000102C4DD12948FFF771FD03202870284C72
:101020000122D102204600F06BF92046BDE8704055
:101030000122910200F064B90021A981E98129828D
:101040001C4B08465C3303F1120200BF23F810105A
:1010500022F81010401C0828F8DD18483038FFF737
:1010600027FD1648FFF74AFD02202870BDE87040B2
:10107000104814A1803002F0E7B8012028700F4812
:10108000FFF7B0FC0021012002F0B8F912A002F035
:101090002DFA0021022002F0B1F913A002F026FA85
:1010A000BDE87040034901229E31024801F0B2B907
:1010B00070BD000070010020100000206C000020B6
:1010C00000080140202047657474696E67205265EE
:1010D0006164792020000000202020204C616D54A4
:1010E00072616E20202000002020202052756E6E3C
:1010F000696E672020200000044910B50A6802428A
:1011000002D00860FFF77AFF10BD00001404014010
:101110002DE9F84FDFF8B8A100220AF1040B1446BC
:1011200001274FF00F090BF1040E00BF0B6807FAFF
:1011300004F52B40AB4274D1DFF898C14E68A6EBA2
:101140000C0866452BD00DDC032E34D005DC36B3FD
:10115000012E19D0022E2FD11BE0112E16D0122EE7
:101160002AD119E0B8F5881F19D006DCB8F5803F00
:1011700015D0B8F5801F1FD111E0B8F5001F0ED0B3
:10118000B8F5041F18D10AE0CA6815E0CA68121D34
:1011900012E0CA6808320FE0CA680C320CE08A68B4
:1011A0002AB1012A4FF0080203D0456104E004226D
:1011B00002E0056100E00022FF2B01D8064601E0B5
:1011C00000F104064FEA840501D9A5F12005D6F8FF
:1011D00000C009FA05F82CEA080C02FA05F54CEAF9
:1011E000050CC6F800C04D68ED006AD53A4DAE69F1
:1011F00046F00106AE61AD6924F0030605F0010575
:101200000095364D06EB050CDCF80850A6074FEAB2
:10121000167809FA08F6B543314EB04202D10026DD
:101220001AE04EE02F4EB04201D1012614E02E4EBE
:10123000B04201D102260FE02C4EB04201D103266C
:101240000AE02B4EB04201D1042605E0294EB042FF
:1012500001D1052600E0062606FA08F62E43CCF852
:1012600008604D68DAF80060ED03554601D51E436D
:1012700000E09E432E604D68AD0305D5DBF80060AD
:101280001E43CBF8006004E0DBF800509D43CBF830
:1012900000504D68DEF80060ED02754601D51E4332
:1012A00000E09E432E604D68AD0205D5084D0C351B
:1012B0002E681E432E6004E0054E0C3635689D43B3
:1012C0003560641C102CFFF431AFBDE8F88F0000CE
:1012D0000004014000001110001002400000014015
:1012E00000080140000C01400010014000140140C2
:1012F00000180140001C0140C2684A40C2607047AB
:101300000AB1016170470904FBE7000001488068E9
:10131000704700000400002070B504001BD094F852
:101320003D00002520B984F83C50204600F030F9FB
:10133000242084F83D002068016821F0010101604B
:1013400000F026FB404A6168914201D83F4900E025
:101350003F49884201D2012070BD3E492368B0FB5D
:10136000F1F159606368934206D94FF4967359437B
:101370004FF47A73B1FBF3F12368491C1962616879
:10138000914210D84900401EB0FBF1F2521CC2F34A
:101390000B02042A01D2042022E0B0FBF1F0401C31
:1013A000C0F30B001CE0A368CBB301EBC10202EB5E
:1013B0000116421EB2FBF6F2521C42F480421205A4
:1013C00036D06BB301EBC10202EB0111401EB0FB42
:1013D000F1F0401CC0F30B0040F4804040F40040AA
:1013E0002168C861D4E90701084321680860D4E98D
:1013F0000310084321688860D4E905010843216887
:10140000C8602068016841F0010101602564202066
:1014100084F83D00256384F83E50002070BD00E054
:1014200008E001EB4106421EB2FBF6F2521CC6E791
:101430000120D5E701EB4101401EB0FBF1F0401C5B
:10144000C0F30B00CAE70000A086010080841E00E4
:1014500000093D0040420F002DE9F84F1F4690461D
:101460008A460446DDF82890FFF750FF064694F8B8
:101470003D0020287ED119230122434920460096B1
:1014800001F0A7F800287DD194F83C00012879D01C
:10149000012084F83C0020680168C90703D1016875
:1014A00041F0010101602068016821F400610160E0
:1014B000212084F83D00102084F83E00002525649A
:1014C000C4F8248067853148E062608D208533460A
:1014D0004A465146204601F00BF828B1206C84F8AA
:1014E0003C5004284CD00DE0206841698069009090
:1014F00030E032464946204601F0E0F828B1206C41
:10150000042838D00320BDE8F88F606A411C61626E
:10151000216800780861608D401E6085208D401E26
:1015200080B2208521684A69D24352070BD450B15A
:10153000606A421C626200780861608D401E6085AE
:10154000208D401E208532464946204601F01AF87B
:101550000028D4D1208D0028CBD154F83D0B016850
:1015600041F400710160202004F81E09E5776577D9
:101570000020C8E706E02068016841F400710160BE
:101580000120C0E70220BEE7020010000000FFFFBC
:1015900000B500680C4985B0884213D14FF4406013
:1015A0000090122001900320039069460748FFF73E
:1015B000AFFD0748C16941F48001C161C06900F411
:1015C0008000049005B000BD00580040000C0140B0
:1015D000001002400248816802781144816070471F
:1015E00004000020074810B5016841F010010160B7
:1015F000032000F095F8002000F006F800F024F831
:10160000002010BD0020024070B50D4D04464FF47F
:101610007A712878B1FBF0F00A490968B1FBF0F063
:1016200000F09BFB48B9102C07D200222146501E27
:1016300000F056F800206C6070BD012070BD000005
:1016400004000020000000201D4808B5816941F019
:1016500001018161806900F001000090032000F029
:101660005FF8002211466FF00B0000F039F80022FD
:1016700011466FF00A0000F033F8002211466FF0B7
:10168000090000F02DF800221146501F00F028F844
:1016900000221146101F00F023F800221146901E70
:1016A00000F01EF800221146501E00F019F80548FF
:1016B000416821F0E06141F00071416008BD000027
:1016C000001002400000014000F01F020121914083
:1016D0004009800000F1E020C0F8001170470000D0
:1016E000F0B40E4B1B680C46C3F30223C3F107058D
:1016F000042D00D90425191D072901D2002300E07B
:10170000DB1E012606FA05F1491E214099409E4044
:10171000761E16403143F0BC01F0E2B90CED00E05A
:10172000064900F0070208684FF6FF03184040EA38
:101730000220034A10430860704700000CED00E0EF
:101740000000FA052DE9F84305460078354CC0073E
:1017500054D0E0690026C00008D4E06940F0805011
:10176000E061E069012600F0805000902E48016899
:10177000C90512D40168804641F480710160FFF709
:10178000C5FD074605E000BFFFF7C0FDC01B64288C
:1017900023D8D8F80000C005F6D5206A10F44070B0
:1017A00021D0A98801F4407181421CD0206A1F49D0
:1017B000012220F440700A6000220A602062C00703
:1017C00011D0FFF7A3FD074641F2883808E000BFBB
:1017D000FFF79CFDC11B414502D90320BDE8F883FA
:1017E000206A8007F4D5206A696820F440700843B5
:1017F00020621EB1E06920F08050E0612878800707
:1018000005D56068A96820F44040084360602878E6
:10181000C00605D56068696920F4800008436060EF
:101820000020DBE70010024000700040400442420C
:101830002DE9F047DFF83C8105460E46D8F8000058
:1018400000F00700B0420CD2D8F8001021F00701D8
:101850003143C8F80010D8F8000000F00700B0428B
:1018600063D12878444C800705D56068A96820F0CA
:10187000F000084360602878C00745D068680128F8
:1018800016D02168022816D0890700294DDA616830
:1018900021F0030101436160FFF738FD69680746E5
:1018A00041F2883001290FD00229814619D027E062
:1018B00021688903E9E78901E7E700BFFFF726FD13
:1018C000C11B494501D918E081466068C0F3810019
:1018D0000128F3D118E000BFFFF718FDC11B4945EF
:1018E0000BD86068C0F381000228F5D10CE000BF7E
:1018F000FFF70CFDC11B494502D90320BDE8F08765
:10190000606810F00C0FF3D1D8F80010404601F0D9
:101910000701B1420BD9016821F007013143016091
:10192000006800F00700B04201D00120E6E7287807
:10193000400705D56068E96820F4E060084360600E
:101940002878000706D56068296920F4605040EACD
:10195000C100606000F03CF86168084AC1F30311FF
:10196000515CC840064908600020FFF74DFE00208A
:10197000C4E7000000200240001002405C3B000869
:1019800000000020014800687047000000000020AF
:101990000448054900684968044AC1F30221515CC2
:1019A000C840704700000020001002406C3B000857
:1019B0000448054900684968044AC1F3C221515CE2
:1019C000C840704700000020001002406C3B000837
:1019D00012A185B00FC98DE80F0014A0144A006849
:1019E00004905168134801F00C03042B10D0082B0D
:1019F0000ED1C1F38343C9031DF803000AD5516812
:101A000004AAC1F34041515C0A4A5043B0FBF1F0D3
:101A100005B0704708494843FAE70000020304058F
:101A2000060708090A0B0C0D0E0F1010010200002A
:101A30000010024000127A0000093D002DE9F84F25
:101A400004460078B94DC00748D06868C0F38100EB
:101A5000012807D06868C0F38100022809D16868AE
:101A6000C00306D52868800338D5606800286FD089
:101A700034E06068B0F5803F0BD010B1B0F5A02F16
:101A800011D0286820F480302860286820F4802055
:101A900002E0286840F480302860606888B1FFF771
:101AA00035FC064609E0286840F480202860F0E70D
:101AB000FFF72CFC801B642875D828688003F7D5B5
:101AC0000CE0FFF723FC064605E000BFFFF71EFC15
:101AD000801B6428F0D828688003F7D42078944EBF
:101AE00080074FF001094FF000083BD5686810F0FF
:101AF0000C0F07D06868C0F38100022809D168681C
:101B0000C00306D42868800714D5206901281FD196
:101B100010E02069B0B1C6F80090FFF7F7FB074668
:101B200005E000BFFFF7F2FBC01B0228C4D82868FD
:101B30008007F7D52868616920F0F80040EAC10005
:101B400028600FE0C6F80080FFF7E0FB074606E0DC
:101B5000E9E000BFFFF7DAFBC01B022823D82868A2
:101B60008007F7D4207800072CD57248A169D9B135
:101B7000C0F80090FFF7CAFB074604E0FFF7C6FB7A
:101B8000C01B02280FD8686A8007F7D56A484FF44F
:101B9000FA510068B0FBF1F0009000BF0098411EC0
:101BA0000091FAD20EE080E0C0F80080FFF7AEFBB3
:101BB000074604E0FFF7AAFBC01B022875D8686A35
:101BC0008007F7D42078400760D5E8690027C00077
:101BD00008D4E86940F08050E861E869012700F026
:101BE0008050009055480168C90513D401688346A8
:101BF00041F480710160FFF789FB824606E000BF77
:101C0000FFF784FBA0EB0A0064284ED8DBF8000045
:101C1000C005F5D5E06801280AD008B1052813D021
:101C2000286A20F001002862286A20F0040002E0FF
:101C3000286A40F001002862E06841F2883B98B1D0
:101C4000FFF764FB82460BE0286A40F0040028623C
:101C5000EEE700BFFFF75AFBA0EB0A0159455AD83F
:101C6000286A8007F6D50CE0FFF750FB824605E0B6
:101C7000FFF74CFBA0EB0A0159454CD8286A8007B6
:101C8000F6D41FB1E86920F08050E861E06988B3BC
:101C90006968C1F38101022945D00228C6F8608035
:101CA00004D0FFF733FB044638E034E0FFF72EFBA7
:101CB000074604E0FFF72AFBC01B02282BD8286840
:101CC0008001F7D4206AB0F5803F05D16868A1682B
:101CD00020F4003008436860D4E9080108436968CB
:101CE00021F4741108436860C6F86090FFF70EFB9A
:101CF000044606E015E000BFFFF708FB001B0228C2
:101D000009D828688001F7D50BE000BFFFF7FEFA7D
:101D1000001B022802D90320BDE8F88F2868800143
:101D2000F4D40020F8E70120F6E70000001002409C
:101D30000000424280044242000000200070004047
:101D40004FF0E0210428086903D020F00400086166
:101D5000704740F00400FAE7704710B5401EB0F13C
:101D6000807F01D3012010BD4FF0E02460610F217E
:101D7000601700F0B5FE0020A06107202061002060
:101D800010BD10B5FFF7E8FF10BD30B590F83C204E
:101D9000012A20D0012280F83C20022380F83D3027
:101DA00003685C6824F070045C6003685C680D681C
:101DB0002C435C6003689C6824F080049C6003688A
:101DC0009C6849680C439C6080F83D20002180F8A5
:101DD0003C10084630BD022030BD10B5040003D0D1
:101DE00094F83D0010B107E0012010BD002084F8F8
:101DF0003C00204600F00CF8022084F83D00211D34
:101E0000206800F047FF012084F83D00002010BD4D
:101E100008B501680B48B1F1804F0BD00A4A9142D6
:101E200007D1C16941F00201C161C06900F002003F
:101E3000009008BDC16941F00101C161C06900F0B5
:101E40000100F5E7001002400004004070B50446B0
:101E500090F83C00012817D0012584F83C5002205E
:101E600084F83D002068826822F0770222F47F42E5
:101E700082600868502837D00DDC202859D005DC56
:101E800088B3102841D151E0022070BD302853D0D2
:101E900040283AD13FE060282ED070280BD0B0F512
:101EA000805F03D0B0F5005F2FD110E0206881681B
:101EB00021F0070115E0CB68D1E90121206800F08D
:101EC0003AFF2168886840F0770088601DE0CB68A1
:101ED000D1E90121206800F02EFF2068816841F4DB
:101EE0008041816011E01EE0CA684968206800F006
:101EF000F7FF5021206806E0CA684968206801F0B1
:101F000000F86021206800F020FF84F83D50002098
:101F100084F83C0070BDCA684968206800F0E0FFA2
:101F200040212068EFE700212068ECE710212068BD
:101F3000E9E720212068E6E730212068E3E7000098
:101F40001FB500680B49884212D14FF470700090A1
:101F500002200190039069460748FFF7D9F8074827
:101F6000416821F4406141F0E06141F44061416029
:101F70001FBD0000000400400010014000000140AF
:101F800070B5044690F83C000D4601280DD001269E
:101F900084F83C60022084F83D0042B1042A18D045
:101FA000082A2AD00C2A4DD139E0022070BD2068C1
:101FB00000F0D4FE2068816941F008018161206849
:101FC000816921F004018161206881692A691143D6
:101FD00011E0206800F0F2FE2068816941F40061A0
:101FE00081612068816921F4806181612068816953
:101FF0002A6941EA0221816124E0206800F014FF8F
:102000002068C16941F00801C1612068C16921F0FF
:102010000401C1612068C1692A69114311E0206887
:1020200000F036FF2068C16941F40061C161206899
:10203000C16921F48061C1612068C1692A6941EAEE
:102040000221C16184F83D60002084F83C0070BD2D
:1020500010B5040003D094F83D0010B107E0012052
:1020600010BD002084F83C00204600F00CF802204F
:1020700084F83D00211D206800F00CFE012084F84A
:102080003D00002010BD704710B5044600680122D5
:1020900000F046FE08492068884202D0074988427D
:1020A00003D1416C41F4004141642068016841F072
:1020B00001010160002010BD002C014000340140EE
:1020C00010B504460068002200F02AFE114841F2D3
:1020D000111221689310814202D00F48814209D128
:1020E000086A104206D1086A184203D1486C20F4ED
:1020F000004048642068016A114206D1016A194211
:1021000003D1016821F001010160012084F83D0044
:10211000002010BD002C0140003401407047000039
:1021200010B504460068C16821F49071C160206850
:10213000416921F001014161206841694FF02002AD
:102140004B064FF000010FD5436923F04003436174
:10215000606B48B108494163606BFEF707FD48B109
:10216000606B416B884705E0E18584F83A202046A2
:10217000FFF7D4FF002010BD452F00087047000076
:1021800070B5026804461068D168536910F00F0FEB
:1021900050D003F0010501F4907635435DD0C207BD
:1021A00005D0CA0503D5E26B42F00102E2634207A3
:1021B00005D5DA0703D0E26B42F00202E263820740
:1021C00005D5DA0703D0E26B42F00402E2630207AE
:1021D00005D5DA0703D0E26B42F00802E263E26B56
:1021E000002A33D0800604D5880602D5204600F0A8
:1021F000C1FE20684069E16BC0F38010090700D47C
:1022000028B3204600F0A8FE2068416949061AD587
:10221000416921F040014161606BA0B11B494163FC
:10222000606BFEF7A3FC002810D0606B416BBDE82B
:1022300070400847830610D58B060ED52046BDE8B2
:10224000704000F097BE2046FFF798FF70BD204613
:10225000FFF794FF0020E06370BD030606D50B0670
:1022600004D52046BDE8704000F088BF4006F3D595
:102270004806F1D5D168204621F04001D1602021E7
:1022800084F8391000F01EF970BD0000352F0008E9
:1022900070B5040004D094F83900002510B106E0B0
:1022A000012070BD84F83850204600F023F8242027
:1022B00084F839002068C16821F40051C1602046CB
:1022C00000F0A4FE2068016921F4904101612068BA
:1022D000416921F02A0141612068C16841F400513F
:1022E000C160E563202084F8390084F83A000020BA
:1022F00070BD000010B50068154986B0884225D130
:102300001448C16941F40021C161C069124C00F454
:10231000002004904FF48060009002200190032080
:10232000039069462046FEF7F3FE0021E014CDE954
:102330000001029169462046FEF7EAFE00220121D3
:102340003420FFF7CDF93420FFF7BEF906B010BDF9
:10235000004C004000100240001001402DE9F843FD
:10236000044690F83A00994616460D4620284FD16B
:1023700095B18EB194F83800012849D0012084F835
:1023800038000027E763222084F83A00FEF7BEFFFA
:10239000A6858046E68531E00120BDE8F883E08D22
:1023A000401EE085A0684346B0F5805F4FF0000214
:1023B0004FF020012046CDF8009004D000F00FFF30
:1023C00098B10320E9E700F00AFF0028F9D120695D
:1023D00000282068406803D0C1B225F8011B0DE039
:1023E000C0F3080125F8021B08E0206900282068D6
:1023F000406801D000F07F0005F8010BE08D002857
:10240000CDD1202084F83A0084F838700020C4E749
:102410000220C2E790F83A30202B22D1F9B1F2B174
:1024200090F83830012B1CD081628285C285002152
:10243000C163222280F83A2080F838100168CA6807
:1024400042F48072CA6001684A6942F001024A613E
:102450000068C16841F02001C16000207047012080
:10246000704702207047000010B50068114988428B
:102470001FD11148FEF742FB0F483038FEF718FB1A
:102480000E4A00200146A2F1500311541954401C79
:102490000A28FADB09494FF4967382393222A1F1F6
:1024A0009E00FFF75BFF0448FEF79CFA04490520F5
:1024B000087010BD004C00406C000020900200200D
:1024C000100000207047FEE701684A69D2435205B8
:1024D0000CD46FF480624A6104210164002140F849
:1024E000301F202242730173012070470020704783
:1024F000F8B50446C06A1E460D461746042807D0A4
:10250000012805D010F5803F02D0206B122804D19D
:102510002068016841F480710160134600224FF089
:1025200001112046009600F054F8A0B92069B0F5DA
:10253000804F12D00620216800EAD51040F0F0004C
:10254000086133463A460E49204600F073F838B128
:10255000206C042811D00320F8BD05F0FE0000E037
:10256000E8B221680861064933463A46891F204689
:1025700000F060F80028EBD1F8BD0120F8BD0000A4
:102580000800010070B516460D4604461AE02046C4
:10259000FFF79AFF08B1012070BD681C12D025B169
:1025A000FEF7B4FE801BA8420CD954F8400F40F04F
:1025B000200044F81009002020602021617320735E
:1025C000032070BD20684069C0434007DFD400206D
:1025D00070BD2DE9F0471E4690460D460446C1F3F6
:1025E0000747DDF8209012E0701C10D02EB1FEF7E6
:1025F0008DFEA0EB0900B04209D9002044F8300F4D
:1026000020216173A07320730320BDE8F087206848
:10261000012F0AD0806925EA00000004000C06D0D2
:1026200000214145E0D00020EFE74069F3E70121B8
:10263000F7E700002DE9F0479A4691460D4604461B
:1026400000264FF02008C1F307472AE020684069C0
:10265000C043400512D42068016841F40071016054
:1026600021686FF48060486104202064266384F848
:102670003D8084F83C600120BDE8F087B9F1FF3F60
:102680000FD0B9F1000F05D0FEF740FEA0EB0A0114
:10269000494506D944F8306F84F80D80267303202D
:1026A000EAE72068012F07D0D0F8180025EA0000DB
:1026B0000004000CE0D0C9E74069F7E770B51646A2
:1026C0000D4604461AE02046FFF7FEFE08B1012041
:1026D00070BD681C12D025B1FEF718FE801BA84201
:1026E0000CD954F8400F40F0200044F810090020A5
:1026F0002060202161732073032070BD2068406931
:10270000C0430006DFD4002070BD0000074910B5AB
:102710000922A1F5BA70FEF7DFF80520FEF75CFC90
:10272000BDE810400248FEF7C3B90000B001002028
:102730003C000020FEB53348314900250160891571
:1027400001244561C0E90214092606614FF46021A5
:102750004560C161FDF7BCFF00B1FEE7CDE9005463
:102760000325694627480295FDF7A2FE00B1FEE762
:1027700000940224694623480194FDF799FE00B1B4
:10278000FEE769461F48CDE90045FDF791FE00B11F
:10279000FEE70424CDE9005469461A48FDF788FE97
:1027A00000B1FEE700940524694616480194FDF740
:1027B0007FFE00B1FEE700940624694611480194AB
:1027C000FDF776FE00B1FEE70094072469460D4848
:1027D0000194FDF76DFE00B1FEE700940824694600
:1027E00008480194FDF764FE00B1FEE7CDE900461C
:1027F00069460448FDF75CFE002800D0FEE7FEBDF8
:10280000002401403C0000203EB510480E49012440
:10281000016000218160C16041614FF46022046168
:10282000C2614160FDF754FF00B1FEE70A20CDE927
:1028300000040320029069460448FDF739FE002891
:1028400000D0FEE73EBD0000003C01406C000020CF
:102850002DE9F0474F4886B0816941F02001816140
:10286000816901F020010491816941F010018161C9
:10287000816901F010010491816941F004018161D5
:10288000816901F004010491816941F008018161CD
:102890008069DFF8049100F0080004900122022111
:1028A0004846FEF72DFDDFF8F48000224FF4F0518A
:1028B0004046FEF725FD4FF4805700223946484632
:1028C000FEF71EFDDFF8D8A0FE100022314650466C
:1028D000FEF716FD02241120CDE900406946484666
:1028E0000394FEF715FCE00100900020CDE90104FF
:1028F00069464046FEF70CFC01250320CDE9006542
:10290000039069464046FEF703FC4FF4E050CDE9E2
:102910000005694603944046FEF7FAFBCDE90075D1
:10292000694648460394FEF7F3FB4FF4F4700090B9
:102930001C48CDE9010469465046FEF7E9FB10202A
:1029400000901948CDE9010469465046FEF7E0FBC6
:10295000CDE90065694650460394FEF7D9FB002295
:1029600001210920FEF7BCFE0920FEF7ADFE002282
:1029700001210A20FEF7B4FE0A20FEF7A5FE002280
:1029800001211720FEF7ACFE1720FEF79DFE06B0D2
:10299000BDE8F0870010024000100140000801402F
:1029A000000C014000003110000011100B4810B560
:1029B000094901600A49416000214FF48042816069
:1029C000C0E9031241618161C1610162FEF7A4FCAB
:1029D000002800D0FEE710BD005800409C000020F9
:1029E000A086010010B5134886B04FF08041016009
:1029F00047210024C0E901144FF6FE71C0E9031419
:102A00008461FFF7EAF900B1FEE74FF480500090CF
:102A100069460848FFF71AFA00B1FEE7049404A9D2
:102A200004480594FFF7B1F9002800D0FEE706B08E
:102A300010BD0000F000002010B527488EB02549D9
:102A4000016047210024C0E901144FF6FE71C0E97E
:102A500003148461FFF7C1F900B1FEE74FF4805021
:102A6000079007A91C48FFF7F1F900B1FEE71A48E3
:102A7000FFF7EEFA00B1FEE70B940BA916480C9491
:102A8000FFF783F900B1FEE76020CDE9000402946E
:102A90000022694610480494FFF772FA00B1FEE77D
:102AA000042269460C48FFF76BFA00B1FEE70822E2
:102AB00069460948FFF764FA00B1FEE70C2269464F
:102AC0000548FFF75DFA00B1FEE70348FFF738FA63
:102AD0000EB010BD0004004030010020FEE770473A
:102AE0000907090E002806DA00F00F0000F1E020C7
:102AF00080F8141D704700F1E02080F80014704742
:102B00002DE9F041FFF702FE00212B4C2B48012557
:102B10000B4604F1120200BF34F811608789BE42EF
:102B200001D8535400E05554491C0829F4DD002114
:102B300034F811608789BE4201D3555400E05354E4
:102B4000491C0829F4DD8380438143620021535CE2
:102B5000012B0CD101EB41034489C3EBC11304EBFE
:102B6000C30303F57A734381436A5B1C4362491CC8
:102B70000929ECDBB0F90A10426A91FBF2F141F24B
:102B80008832511A81808188C180018982881144EC
:102B90000181018BB0F904205143B0F90420C388AE
:102BA000D21A838A03FB0211C28A038902FB031132
:102BB0000162006ABDE8F081B00100201000002031
:102BC0007047704710B5FEF705FDBDE81040FFF7F0
:102BD000D8B830B595B001210804CDE90010002522
:102BE000029502240491CDE907404FF4E0100990CA
:102BF0006846FEF723FF00B1FEE70AA90F2081E82F
:102C000031004FF48060CDE90D0502210AA8FEF7DE
:102C10000FFE00B1FEE74FF4004011900F940FA893
:102C2000FEF790FD00B1FEE7FEF7ACFE4FF47A71BF
:102C3000B0FBF1F0FFF791F80420FFF781F80022D4
:102C40001146501EFEF74CFD15B030BD0D48016811
:102C500041F00101016041680B4A11404160016887
:102C60000A4A11400160016821F480210160416835
:102C700021F4FE0141604FF41F0181600449C0034B
:102C800008607047001002400000FFF8FFFFF6FEEA
:102C900008ED00E0F0B502681C4B1D4D1D4E1E4FA7
:102CA0001E4C4FF0804C984209D0A04207D060459E
:102CB00005D0A84203D0B04201D0B84204D122F0DE
:102CC000700E4A6842EA0E02984209D0A04207D02C
:102CD000604505D0A84203D0B04201D0B84203D12C
:102CE00022F44075CA682A4322F080054A692A43C3
:102CF00002608A68C2620A688262984201D0A04279
:102D000001D10969016301214161F0BD002C01403D
:102D10000004004000080040000C00400034014066
:102D200010B50123046A8B409C430462036A8A4005
:102D30001343036210BD10B5846842EA032224F4F1
:102D40007F440A432243826010BD826822F07002F1
:102D50000A4342F00701816070470000F0B5026A43
:102D600022F001020262036A42688469124E24F072
:102D700073050C682C4323F002058B682B430D4D23
:102D8000A84201D0B04205D123F00807CB683B43ED
:102D900023F00403A84201D0B04205D14D6922F4CA
:102DA000407215438A692A434260846149684163DD
:102DB0000362F0BD002C014000340140F0B5026A0E
:102DC00022F010020262026A436884690D6824F4EA
:102DD000E64444EA05248D6822F0200242EA051206
:102DE0000F4D104EA84201D0B04206D1CF6822F05C
:102DF000800242EA071222F04002A84201D0B0420B
:102E000007D14D6923F4406343EA85038D6943EAA2
:102E1000850343608461496881630262F0BD0000FC
:102E2000002C014000340140F0B5026A22F48072A7
:102E30000262026A4368C46922F4007224F07305D6
:102E40000C68124E2C438D6842EA05220E4DA842B2
:102E500001D0B04206D1CF6822F4006242EA0722D4
:102E600022F48062A84201D0B04207D14D6923F418
:102E7000405343EA05138D6943EA05134360C46177
:102E80004968C1630262F0BD002C0140003401407A
:102E900030B5026A22F480520262046A4268C36951
:102EA0000D6823F4E64343EA05238D6824F40054B7
:102EB00044EA0534084DA84202D0084DA84204D186
:102EC0004D6922F4804242EA85124260C36149683A
:102ED0000164046230BD0000002C01400034014058
:102EE00010B5036A046A24F001040462846924F0C2
:102EF000F00444EA021423F00A020A4384610262E5
:102F000010BD10B5036A23F0100303628369046ADD
:102F100023F4704343EA023224F0A00343EA011190
:102F20008261016210BD00000148FFF729B900006D
:102F30007001002010B5406A0021C185C184FFF7EF
:102F40001DF910BD10B5406A0021C185202180F80F
:102F50003A10FFF7E3F810BD0168CA6822F49072D6
:102F6000CA6001684A6922F001024A61202180F8A2
:102F70003A10704710B590F83A10222901D002207B
:102F800010BD8168B1F5805F11D001690029016829
:102F90001FD0496801F07F03816A4A1C82620B706E
:102FA000C18D491E0904090CC18518D02BE00269A6
:102FB000816A002A0268526805D0D2B20A80816A0A
:102FC000491C8162ECE7C2F308020A80816A891C0D
:102FD000F7E74A68816A4B1C83620A70E0E7016880
:102FE000CA6822F02002CA600168CA6822F48072AE
:102FF000CA6001684A6922F001024A61202180F812
:103000003A10FFF731FA002010BD00002DE9F04121
:10301000044600680169E26821F4405111430161EE
:103020002169A0680843616908432168CA6841F2C0
:103030000C639A430243CA6020684169A26921F483
:103040004071114341614C49206864253226884211
:103050003CD1FEF7ADFC00EBC00101EB0010616854
:103060008900B0FBF1F7FEF7A3FC00EBC00101EB18
:1030700000106168B0468900B0FBF1F0B0FBF5F0DC
:103080006FF01801484307EB800106EB0110B0FB1D
:10309000F5F000F0F006FEF78BFC00EBC00101EB51
:1030A000001061688900B0FBF1F0B0FBF5F006EBB1
:1030B0000016FEF77DFC00EBC00101EB001061681B
:1030C0008900B0FBF1F7FEF773FC3BE0FEF760FC14
:1030D00000EBC00101EB001061688900B0FBF1F763
:1030E000FEF756FC00EBC00101EB00106168B04632
:1030F0008900B0FBF1F0B0FBF5F06FF01801484328
:1031000007EB800106EB0110B0FBF5F000F0F006D4
:10311000FEF73EFC00EBC00101EB00106168890086
:10312000B0FBF1F0B0FBF5F006EB0016FEF730FC5B
:1031300000EBC00101EB001061688900B0FBF1F702
:10314000FEF726FC00EBC00101EB0010616889006E
:10315000B0FBF1F0B0FBF5F06FF01801484307EB5E
:10316000800108EB0110B0FBF5F0216800F00F00C2
:1031700030448860BDE8F0810038014090F8391093
:10318000212901D0022070478168B1F5805F016A72
:103190000BD04A1C0262026809785160C18C491E3A
:1031A0000904090CC1840ED017E009880268C1F334
:1031B0000801516001690029016A02D0491C0162BD
:1031C000ECE7891CFBE70168CA6822F08002CA604C
:1031D0000068C16841F04001C160002070472DE9DE
:1031E000F041984617460E460446069D1DE0681CB1
:1031F0001BD02DB1FEF78AF8A0EB0800A84214D925
:103200002068C16821F4D071C1602068416921F053
:1032100001014161202084F8390084F83A0000203F
:1032200084F838000320BDE8F0812068006836EAA1
:10323000000004D00020B842D9D00020F3E70120DC
:10324000F9E7FEE7FEE700000FB4084B10B504A94C
:1032500002AA039800F020F8044602A9002000F01A
:10326000C5F8204610BC5DF814FB0000ED330008E3
:10327000004870473800002002E008C8121F08C14B
:10328000002AFAD170477047002001E001C1121FE7
:10329000002AFBD1704700002DE9FF4F89B09B4603
:1032A0000446002506E025280BD05A460B99904786
:1032B000641C6D1C20780028F5D10DB02846BDE8AF
:1032C000F08F0027B8460122474900E0074314F871
:1032D000013F203B02FA03F00842F7D120782E2864
:1032E00019D114F8010F47F004072A280ED06FF007
:1032F0002F022078A0F1300109290CD808EB8801B1
:1033000002EB410100EB0108641CF2E70A98641C1F
:1033100050F8048B0A9020780028CED0642808D07A
:10332000692806D075281ED05A460B9990476D1C07
:1033300058E00A994FF00A0901C90A91002802DAF7
:1033400040422D2102E0390504D52B218DF82010B3
:10335000012103E0F90704D02021F7E78A4608AEEF
:103360000DE00021FAE70A994FF00A0901C90A9114
:10337000F7E74946FCF705FF303106F8011D002844
:10338000F7D1ADEB060000F12009780701D44FF02A
:103390000108C84502DDA8EB090000E000208046D6
:1033A000002706E008A85A46C05D0B9990476D1C9F
:1033B0007F1C5745F6DB04E030205A460B999047B6
:1033C0006D1CB8F10001A8F10108F5DC05E016F864
:1033D000010B5A460B9990476D1CB9F10001A9F1F8
:1033E0000109F4DC641C65E7092801000A68531C24
:1033F0000B6010707047012000F038B8012805D02C
:103400004031C8B240F0800000F030B88031C8B21E
:10341000FAE710B5332000F029F8322000F026F842
:103420003220FDF7D9FD282000F020F83220FDF7EA
:10343000D3FD012000F01AF83220FDF7CDFD062063
:1034400000F014F83220FDF7C7FD0C2000F00EF854
:103450003220FDF7C1FD022000F008F83220FDF710
:10346000BBFDBDE810408020AFF300801CB500F02C
:10347000F00141F00C028DF8042041F00801000138
:103480008DF8051040F00C018DF8061040F0080092
:103490008DF8070064200090042301AA4E21024801
:1034A000FDF7DAFF1CBD00009C0000201CB500F0F9
:1034B000F00141F00D028DF8042041F009010001F6
:1034C0008DF8051040F00D018DF8061040F0090050
:1034D0008DF8070064200090042301AA4E210248C1
:1034E000FDF7BAFF1CBD00009C00002010B504468B
:1034F00002E0641CFFF7DAFF20780028F9D110BD44
:1035000008B5FEF76FF8FFF764FBFFF7A1F9FA487B
:10351000416941F0010141614069002200F0010070
:10352000009003210B20FEF7DBF80B20FEF7CCF810
:10353000FFF700F9FFF768F9FFF738FAF048EF49AD
:103540004FF0000901604FF4E131C0E901190C228C
:10355000C0F80C90C0E90492C0F81890C0F81C9014
:10356000FEF796FE00B1FEE7FFF766FAFFF73AFABC
:10357000E448FDF737FAFFF74CFF00210120FFF781
:103580003DFFE1A0FFF7B2FF00210220FFF736FF69
:10359000E1A0FFF7ABFF40F6B830FDF71DFDFFF7E8
:1035A0002AFFD74E4FF47A6A403606F11C074FF4D3
:1035B000967BDFF8748306E0FFF7A2FA4FF48051A0
:1035C000DA48FDF799FE98F8000044460128F3D048
:1035D00022E001229102D648FDF792FE00224FF42C
:1035E0008051D248FDF78CFE00210120FFF706FF35
:1035F000D0A0FFF77BFF00210220FFF7FFFED2A043
:10360000FFF774FF4FF4FA752846FDF7E5FCFFF766
:10361000F2FE2846FDF7E0FC20780028D9D0A0462D
:10362000444698F8000002280AD04FF4FA75207832
:1036300003287CD0B24DF8352078042878D00FE2EA
:1036400000210120FFF7DAFEBAA0FFF74FFF0021AB
:103650000220FFF7D3FEAA488030FFF747FFA046BD
:103660007CE0B34D0122D1022846FDF749FE00223D
:1036700029152846FDF744FEA046A4F80C905446B0
:10368000504600F02BFA5846FDF7A6FC204600F005
:1036900045FAFFF73BF80024FFF738F836F8141026
:1036A00037F91400814203DB36F8140027F81400C0
:1036B000641C082CF0DD924D002041F288316E35FB
:1036C00025F81010401C0828FADD0024FFF71EF82A
:1036D00036F8140035F91410884203DC36F814006B
:1036E00025F81400641C082CF0DD00204FEA0804C3
:1036F00037F81020E1891144E181401C0828F7DDEA
:103700005FF0000035F81010228A11442182401C1D
:103710000628F7DDE1890720B1FBF0F1228AB2FB30
:10372000F0F008444008A0815D46584601E020E0E2
:1037300036E0FDF751FC504600F0D0F92846FDF781
:103740004BFC00224FF480517848FDF7D9FD6C48BE
:1037500081A18030FFF778FD02202070B8F80C00BE
:10376000444600283FF47DAF4FF47A70FDF734FCF7
:1037700056E700210120FFF741FE6EA0FFF7B6FEDD
:1037800000210220FFF73AFE78A0FFF7AFFE28469F
:10379000FDF722FCFFF72FFE2846FDF71DFC46E74C
:1037A000002202216148FDF7ABFD55494FF47A73C1
:1037B0001422F8315248FEF7D1FD704A0020294604
:1037C0000B5C0D2B01D00B5C1354401C1428F7DD4F
:1037D00000210120FFF712FE69A0FFF787FE0021FC
:1037E0000220FFF70BFE60A0FFF780FE0121022000
:1037F000FFF704FE6148FFF779FE1DE700224FF452
:1038000080514A48FDF77CFD5C496E3991F83100E2
:1038100028B100204A460A54401C3228FBDB002213
:10382000885C3A2832D188180579544B3C3B1D708E
:1038300090F804C003F1500585F800C090F805C069
:1038400083F801C090F805C085F801C090F806C063
:1038500083F802C090F806C085F802C090F807C04F
:1038600083F803C0C379EB7010F8013C202B1DD006
:1038700010F8013C442B1BD010F8013C492B19D007
:1038800010F8010C502817D048466070521C322A9C
:10389000C6DD6078012811D0607802281ED06078DB
:1038A000032828D0607804287ED0CDE00120ECE702
:1038B0000220EAE70320E8E70420E6E72F48143077
:1038C000FCF752FC002870D02C481430FCF74CFC5C
:1038D0006082FFF79EFD628A2EA192E02748143095
:1038E000FCF742FC002860D024481430FCF73CFC74
:1038F000A082A28A5AE067E000100240004C00401B
:10390000700100206C0000202020202057656C638F
:103910006F6D652020200000202041475620507206
:103920006F6A656374000000100000200010014001
:103930000008014020204147565F424B484E5F4CF3
:10394000616D2020000000002020202050494E20E2
:1039500059455521202020002020202052656164F7
:1039600079203A292020202020000000202020203B
:103970002050617573652020200000007C0200202B
:103980002020507265737320526561647920202075
:1039900020000000202073706565643A20256420B3
:1039A00020202020202000001DE04DE02FA13548E0
:1039B000FFF74AFC00210120FFF720FD32A0FFF7AE
:1039C00095FDFFF726FD26E02E484630FCF7CCFBA0
:1039D000D0B32C484630FCF7C7FBE082FFF719FD57
:1039E000E28A2DA10DE027484630FCF7BDFB58B315
:1039F00024484630FCF7B8FB2083FFF70AFD228BF2
:103A00002BA12048FFF720FC00210120FFF7F6FC46
:103A10001DA0FFF76BFD00210220FFF7EFFC194806
:103A2000FFF764FD4FF47A70FDF7D6FA002101200C
:103A3000FFF7E4FC14A0FFF759FD00210220FFF777
:103A4000DDFC21A0FFF752FD0E4901223C39A1F116
:103A50009E00FEF7DFFC2048FCF7C4FF0120207029
:103A6000207805287FF4A7ADC8E60000202020209C
:103A70004B443A2025642020202020202020202094
:103A8000200000004A020020202020204C616D54BC
:103A900072616E2020200000202020204B493A2017
:103AA000256420202020202020202020200000002D
:103AB000202020204B503A20256420202020202048
:103AC00020202020202000002020202052756E6E13
:103AD000696E6720202000006C00002010B50446AD
:103AE00000210D48FEF7ECFA04210B48FEF7E8FA36
:103AF00008210948FEF7E4FA0C210748FEF7E0FA2E
:103B000004210548FEF7C0FA034800688463BDE855
:103B100010400120FDF760BA3001002010B50446C6
:103B200000210D48FEF7CCFA04210B48FEF7C8FA35
:103B300008210948FEF7C4FA0C210748FEF7C0FA2D
:103B400000210548FEF7A0FA034800684463BDE879
:103B500010400120FDF740BA3001002000000000B5
:103B6000000000000102030406070809000000002D
:103B70000102030400404040404040404040414179
:103B80004141414040404040404040404040404032
:103B900040404040400502020202020202020202CC
:103BA00002020202022020202020202020202002C9
:103BB0000202020202029090909090901010101059
:103BC00010101010101010101010101010101010F5
:103BD0000202020202028888888888880808080889
:103BE0000808080808080808080808080808080855
:103BF0000202020240000000753B00081C3C000865
:103C0000000000203C00000078320008583C00080A
:103C10003C000020A40600008832000800A24A04EC
:103C2000010000001000000000000000040000007F
:103C30000000000000000000000000000000000084
:103C40000000000000000000000000000000000074
:083C500000000000000000006C
:0400000508000131BD
:00000001FF
