:020000040800F2
:10000000680400204501000807100008130D0008CF
:10001000051000088D010008E9100008000000002C
:100020000000000000000000000000002B1000088D
:100030008F01000800000000291000082D100008A2
:100040005F0100085F0100085F0100085F01000810
:100050005F0100085F0100085F0100085F01000800
:100060005F0100085F0100085F0100085F010008F0
:100070005F0100085F0100085F0100085F010008E0
:100080005F0100085F0100085F0100085F010008D0
:100090005F0100085F0100085F0100085F010008C0
:1000A0005F0100085F0100085F0100085F010008B0
:1000B0005F0100085F0100085F0100085F010008A0
:1000C0005F0100085F0100085F0100085F01000890
:1000D0005F0100085F0100085F0100085F01000880
:1000E0005F0100085F0100085F0100085F01000870
:1000F0005F0100085F0100085F0100085F01000860
:100100005F0100085F0100085F0100085F0100084F
:100110005F0100085F0100085F0100085F0100083F
:100120005F0100085F0100085F0100085F0100082F
:10013000DFF80CD000F018F800480047151200084E
:10014000680400200648804706480047FEE7FEE7AF
:10015000FEE7FEE7FEE7FEE7FEE7FEE7FEE7FEE777
:10016000A110000831010008064C074D06E0E068C8
:1001700040F0010394E8070098471034AC42F6D3EE
:10018000FFF7DAFFB4120008D4120008FEE7704748
:1001900070B5044600F00CF90546601C02D0044816
:1001A0000078044400F004F9401BA042FAD370BD6B
:1001B000040000202DE9F84FDFF8B8A100220AF171
:1001C000040B144601274FF00F090BF1040E00BF7A
:1001D0000B6807FA04F52B40AB4274D1DFF898C1E5
:1001E0004E68A6EB0C0866452BD00DDC032E34D0F0
:1001F00005DC36B3012E19D0022E2FD11BE0112EB3
:1002000016D0122E2AD119E0B8F5881F19D006DCB5
:10021000B8F5803F15D0B8F5801F1FD111E0B8F5B3
:10022000001F0ED0B8F5041F18D10AE0CA6815E007
:10023000CA68121D12E0CA6808320FE0CA680C32A0
:100240000CE08A682AB1012A4FF0080203D0456108
:1002500004E0042202E0056100E00022FF2B01D847
:10026000064601E000F104064FEA840501D9A5F134
:100270002005D6F800C009FA05F82CEA080C02FAA5
:1002800005F54CEA050CC6F800C04D68ED006AD5CE
:100290003A4DAE6946F00106AE61AD6924F0030641
:1002A00005F001050095364D06EB050CDCF808500D
:1002B000A6074FEA167809FA08F6B543314EB04260
:1002C00002D100261AE04EE02F4EB04201D10126A5
:1002D00014E02E4EB04201D102260FE02C4EB04267
:1002E00001D103260AE02B4EB04201D1042605E0DD
:1002F000294EB04201D1052600E0062606FA08F68E
:100300002E43CCF808604D68DAF80060ED035546DE
:1003100001D51E4300E09E432E604D68AD0305D518
:10032000DBF800601E43CBF8006004E0DBF800500F
:100330009D43CBF800504D68DEF80060ED02754635
:1003400001D51E4300E09E432E604D68AD0205D5E9
:10035000084D0C352E681E432E6004E0054E0C3609
:1003600035689D433560641C102CFFF431AFBDE847
:10037000F88F00000004014000001110001002403E
:100380000000014000080140000C01400010014045
:100390000014014000180140001C0140C2684A409E
:1003A000C26070470AB1016170470904FBE70000B1
:1003B00001488068704700000400002070B5040008
:1003C0001BD094F83D00002520B984F83C5020460D
:1003D00000F030F9242084F83D002068016821F005
:1003E0000101016000F0A4FA404A6168914201D81D
:1003F0003F4900E03F49884201D2012070BD3E499B
:100400002368B0FBF1F159606368934206D94FF459
:10041000967359434FF47A73B1FBF3F12368491C87
:1004200019626168914210D84900401EB0FBF1F298
:10043000521CC2F30B02042A01D2042022E0B0FBBA
:10044000F1F0401CC0F30B001CE0A368CBB301EB40
:10045000C10202EB0116421EB2FBF6F2521C42F43C
:100460008042120536D06BB301EBC10202EB0111E1
:10047000401EB0FBF1F0401CC0F30B0040F4804084
:1004800040F400402168C861D4E9070108432168AD
:100490000860D4E90310084321688860D4E90501A5
:1004A00008432168C8602068016841F001010160CB
:1004B0002564202084F83D00256384F83E50002008
:1004C00070BD00E008E001EB4106421EB2FBF6F20F
:1004D000521CC6E70120D5E701EB4101401EB0FBED
:1004E000F1F0401CC0F30B00CAE70000A086010039
:1004F00080841E0000093D0040420F002DE9F84FA6
:100500001F4690468A460446DDF82890FFF750FFC4
:10051000064694F83D0020287ED119230122434944
:100520002046009600F07BFC00287DD194F83C002A
:10053000012879D0012084F83C0020680168C907AF
:1005400003D1016841F0010101602068016821F4D4
:1005500000610160212084F83D00102084F83E00F5
:1005600000252564C4F8248067853148E062608DE9
:10057000208533464A465146204600F0DFFB28B12D
:10058000206C84F83C5004284CD00DE02068416970
:100590008069009030E032464946204600F0B4FCC5
:1005A00028B1206C042838D00320BDE8F88F606A99
:1005B000411C6162216800780861608D401E608581
:1005C000208D401E80B2208521684A69D24352079F
:1005D0000BD450B1606A421C626200780861608D81
:1005E000401E6085208D401E2085324649462046AB
:1005F00000F0EEFB0028D4D1208D0028CBD154F898
:100600003D0B016841F400710160202004F81E09CF
:10061000E57765770020C8E706E02068016841F4C7
:10062000007101600120C0E70220BEE70200100057
:100630000000FFFF00B500680C4985B0884212D168
:10064000C0200090122001900320039069460848C2
:10065000FFF7B0FD0748C16941F40011C161C069ED
:1006600000F40010049005B000BD000000540040EC
:10067000000C0140001002400248816802781144D9
:100680008160704704000020074810B5016841F000
:1006900010010160032000F089F8002000F006F846
:1006A00000F024F8002010BD0020024070B50D4D70
:1006B00004464FF47A712878B1FBF0F00A490968D2
:1006C000B1FBF0F000F00DFB48B9102C07D200226E
:1006D0002146501E00F04AF800206C6070BD0120D9
:1006E00070BD000004000020000000201D4808B577
:1006F000816941F001018161806900F00100009091
:10070000032000F053F8002211466FF00B0000F0B8
:100710002DF8002211466FF00A0000F027F80022A1
:1007200011466FF0090000F021F800221146501F19
:1007300000F01CF800221146101F00F017F80022EC
:100740001146901E00F012F800221146501E00F0D3
:100750000DF80548416821F0E06141F00071416009
:1007600008BD00000010024000000140F0B40E4B34
:100770001B680C46C3F30223C3F10705042D00D9FF
:100780000425191D072901D2002300E0DB1E0126E4
:1007900006FA05F1491E214099409E40761E1640FA
:1007A0003143F0BC00F030BC0CED00E0064900F035
:1007B000070208684FF6FF03184040EA0220034A88
:1007C00010430860704700000CED00E00000FA05DF
:1007D0002DE9F047DFF83C8105460E46D8F80000C9
:1007E00000F00700B0420CD2D8F8001021F0070149
:1007F0003143C8F80010D8F8000000F00700B042FC
:1008000063D12878444C800705D56068A96820F03A
:10081000F000084360602878C00745D06868012868
:1008200016D02168022816D0890700294DDA6168A0
:1008300021F0030101436160FFF7BAFD69680746D3
:1008400041F2883001290FD00229814619D027E0D2
:1008500021688903E9E78901E7E700BFFFF7A8FD01
:10086000C11B494501D918E081466068C0F3810089
:100870000128F3D118E000BFFFF79AFDC11B4945DD
:100880000BD86068C0F381000228F5D10CE000BFEE
:10089000FFF78EFDC11B494502D90320BDE8F08753
:1008A000606810F00C0FF3D1D8F80010404601F04A
:1008B0000701B1420BD9016821F007013143016002
:1008C000006800F00700B04201D00120E6E7287878
:1008D000400705D56068E96820F4E060084360607F
:1008E0002878000706D56068296920F4605040EA3E
:1008F000C100606000F02CF86168084AC1F3031180
:10090000515CC840064908600020FFF7CFFE002078
:10091000C4E7000000200240001002409C120008C2
:10092000000000200148006870470000000000201F
:100930000448054900684968044AC1F30221515C32
:10094000C84070470000002000100240AC120008B0
:1009500013A185B00FC98DE80F0015A0154A0068D6
:100960000490516801F00C00042804D0082804D039
:10097000114805B070471148FBE7C1F38343C90331
:100980001DF8030009D5516804AAC1F34041515C28
:100990000A4A5043B0FBF1F0EBE709494843E8E766
:1009A00002030405060708090A0B0C0D0E0F1010B0
:1009B000010200000010024000127A00001BB70084
:1009C00000093D002DE9F84F04460078B94DC007F5
:1009D00048D06868C0F38100012807D06868C0F378
:1009E0008100022809D16868C00306D52868800301
:1009F00038D5606800286FD034E06068B0F5803F7B
:100A00000BD010B1B0F5A02F11D0286820F48030A1
:100A10002860286820F4802002E0286840F48030B4
:100A20002860606888B1FFF7C3FC064609E02868C3
:100A300040F480202860F0E7FFF7BAFC801B6428B0
:100A400075D828688003F7D50CE0FFF7B1FC06469F
:100A500005E000BFFFF7ACFC801B6428F0D82868D5
:100A60008003F7D42078944E80074FF001094FF0AF
:100A700000083BD5686810F00C0F07D06868C0F319
:100A80008100022809D16868C00306D4286880075D
:100A900014D5206901281FD110E02069B0B1C6F833
:100AA0000090FFF785FC074605E000BFFFF780FCDC
:100AB000C01B0228C4D828688007F7D52868616958
:100AC00020F0F80040EAC10028600FE0C6F800807E
:100AD000FFF76EFC074606E0E9E000BFFFF768FCA1
:100AE000C01B022823D828688007F7D42078000785
:100AF0002CD57248A169D9B1C0F80090FFF758FC15
:100B0000074604E0FFF754FCC01B02280FD8686AB0
:100B10008007F7D56A484FF4FA510068B0FBF1F04E
:100B2000009000BF0098411E0091FAD20EE080E0D4
:100B3000C0F80080FFF73CFC074604E0FFF738FCF4
:100B4000C01B022875D8686A8007F7D42078400750
:100B500060D5E8690027C00008D4E86940F08050FB
:100B6000E861E869012700F080500090554801686D
:100B7000C90513D40168834641F480710160FFF711
:100B800017FC824606E000BFFFF712FCA0EB0A004C
:100B900064284ED8DBF80000C005F5D5E0680128D0
:100BA0000AD008B1052813D0286A20F00100286275
:100BB000286A20F0040002E0286A40F00100286260
:100BC000E06841F2883B98B1FFF7F2FB82460BE008
:100BD000286A40F004002862EEE700BFFFF7E8FB58
:100BE000A0EB0A0159455AD8286A8007F6D50CE0CF
:100BF000FFF7DEFB824605E0FFF7DAFBA0EB0A0118
:100C000059454CD8286A8007F6D41FB1E86920F00E
:100C10008050E861E06988B36968C1F38101022905
:100C200045D00228C6F8608004D0FFF7C1FB044617
:100C300038E034E0FFF7BCFB074604E0FFF7B8FB01
:100C4000C01B02282BD828688001F7D4206AB0F591
:100C5000803F05D16868A16820F4003008436860CF
:100C6000D4E908010843696821F4741108436860F5
:100C7000C6F86090FFF79CFB044606E015E000BF55
:100C8000FFF796FB001B022809D828688001F7D5DA
:100C90000BE000BFFFF78CFB001B022802D90320EA
:100CA000BDE8F88F28688001F4D40020F8E701201F
:100CB000F6E7000000100240000042428004424279
:100CC00000000020007000404FF0E0210428086977
:100CD00003D020F004000861704740F00400FAE7F8
:100CE000704710B5401EB0F1807F01D3012010BDC8
:100CF0004FF0E02460610F21601700F085F90020BB
:100D0000A06107202061002010BD10B5FFF7E8FFAB
:100D100010BDFEE701684A69D24352050CD46FF456
:100D200080624A6104210164002140F8301F2022C2
:100D3000427301730120704700207047F8B50446E4
:100D4000C06A1E460D461746042807D0012805D064
:100D500010F5803F02D0206B122804D12068016872
:100D600041F480710160134600224FF001112046CA
:100D7000009600F054F8A0B92069B0F5804F12D069
:100D80000620216800EAD51040F0F00008613346E3
:100D90003A460E49204600F073F838B1206C04281A
:100DA00011D00320F8BD05F0FE0000E0E8B2216894
:100DB0000861064933463A46891F204600F060F82C
:100DC0000028EBD1F8BD0120F8BD000008000100AB
:100DD00070B516460D4604461AE02046FFF79AFF06
:100DE00008B1012070BD681C12D025B1FFF7E0FAF0
:100DF000801BA8420CD954F8400F40F0200044F862
:100E0000100900202060202161732073032070BD31
:100E100020684069C0434007DFD4002070BD2DE941
:100E2000F0471E4690460D460446C1F30747DDF8DD
:100E3000209012E0701C10D02EB1FFF7B9FAA0EB91
:100E40000900B04209D9002044F8300F2021617315
:100E5000A07320730320BDE8F0872068012F0AD01B
:100E6000806925EA00000004000C06D000214145FD
:100E7000E0D00020EFE74069F3E70121F7E7000049
:100E80002DE9F0479A4691460D46044600264FF05C
:100E90002008C1F307472AE020684069C0434005A5
:100EA00012D42068016841F40071016021686FF478
:100EB0008060486104202064266384F83D8084F8C3
:100EC0003C600120BDE8F087B9F1FF3F0FD0B9F1D8
:100ED000000F05D0FFF76CFAA0EB0A01494506D9CF
:100EE00044F8306F84F80D8026730320EAE7206809
:100EF000012F07D0D0F8180025EA00000004000CEC
:100F0000E0D0C9E74069F7E770B516460D460446DC
:100F10001AE02046FFF7FEFE08B1012070BD681CF4
:100F200012D025B1FFF744FA801BA8420CD954F81F
:100F3000400F40F0200044F81009002020602021DC
:100F400061732073032070BD20684069C0430006B0
:100F5000DFD4002070BD000030B51A4885B081692B
:100F600041F020018161816901F0200104918169D2
:100F700041F004018161816901F0040104918169FA
:100F800041F010018161816901F0100104918169D2
:100F900041F00801816180690B4D00F008004FF4B9
:100FA000C0540490002221462846FFF7FBF9012097
:100FB000CDE900400220039069462846FFF7FAF881
:100FC00005B030BD00100240001001400B4810B5C4
:100FD000094901600A49416000214FF48042816063
:100FE000C0E9031241618161C1610162FFF7E6F965
:100FF000002800D0FEE710BD005400401000002083
:10100000A0860100FEE770470907090E002806DAEE
:1010100000F00F0000F1E02080F8141D704700F18F
:10102000E02080F8001470477047704710B5FFF754
:1010300023FBBDE81040FFF768BE30B58FB001213B
:101040000804CDE900100024029402250491CDE9A2
:101050000750000109906846FFF7B4FC00B1FEE7B5
:101060000F20CDE90A054FF48060CDE90C40022144
:101070000AA80E94FFF7ACFB00B1FEE7FFF752FCA5
:101080004FF47A71B0FBF1F0FFF72BFE0420FFF76D
:101090001BFE00221146501EFFF768FB0FB030BD4B
:1010A0000D48016841F00101016041680B4A11409F
:1010B000416001680A4A11400160016821F4802101
:1010C0000160416821F4FE0141604FF41F0181601D
:1010D0000449C00308607047001002400000FFF898
:1010E000FFFFF6FE08ED00E0FEE702E008C8121F71
:1010F00008C1002AFAD170477047002001E001C101
:10110000121F002AFBD17047012000F039B80128D6
:1011100005D04031C8B240F0800000F031B88031D5
:10112000C8B2FAE710B5332000F02AF8322000F0F8
:1011300027F83220FFF72CF8282000F021F8322081
:10114000FFF726F8012000F01BF83220FFF720F807
:10115000062000F015F83220FFF71AF80C2000F0F6
:101160000FF83220FFF714F8022000F009F83220BF
:10117000FFF70EF8BDE81040802000F001B8000035
:101180001CB500F0F00141F00C028DF8042041F094
:10119000080100018DF8051040F00C018DF80610D3
:1011A00040F008008DF8070064200090042301AA95
:1011B0004E210248FFF7A2F91CBD000010000020DC
:1011C0001CB500F0F00141F00D028DF8042041F053
:1011D000090100018DF8051040F00D018DF8061091
:1011E00040F009008DF8070064200090042301AA54
:1011F0004E210248FFF782F91CBD000010000020BC
:1012000010B5044602E0641CFFF7DAFF20780028DE
:10121000F9D110BDFFF738FAFFF70FFFFFF79CFE7B
:10122000FFF7D4FEFFF77EFF134C4FF480554FF4C9
:101230007A76E71429462046FFF7B0F8022101200C
:10124000FFF765FF0DA0FFF7DBFF01210220FFF78D
:101250005EFF0EA0FFF7D4FF3046FEF799FFFFF7C1
:1012600053FFC820FEF794FF39462046FFF796F853
:101270006420FEF78DFFDDE7001001404147565F17
:10128000424B484E5F4C616D000000003C332050E3
:10129000494E2059455521204040000000000000E3
:1012A0000000000001020304060708090000000016
:1012B00001020304D4120008000000201000000006
:1012C000EA100008E4120008100000205804000092
:1012D000FA10000800A24A040100000010000000FB
:0412E000000000000A
:0400000508000131BD
:00000001FF
